{
  "_format": "hh-sol-artifact-1",
  "contractName": "OmegaFutures",
  "sourceName": "contracts/OmegaFutures.sol",
  "abi": [
    {
      "inputs": [
        {
          "internalType": "address",
          "name": "token",
          "type": "address"
        },
        {
          "internalType": "string",
          "name": "name_",
          "type": "string"
        },
        {
          "internalType": "string",
          "name": "symbol_",
          "type": "string"
        }
      ],
      "stateMutability": "nonpayable",
      "type": "constructor"
    },
    {
      "inputs": [
        {
          "internalType": "address",
          "name": "sender",
          "type": "address"
        },
        {
          "internalType": "uint256",
          "name": "tokenId",
          "type": "uint256"
        },
        {
          "internalType": "address",
          "name": "owner",
          "type": "address"
        }
      ],
      "name": "ERC721IncorrectOwner",
      "type": "error"
    },
    {
      "inputs": [
        {
          "internalType": "address",
          "name": "operator",
          "type": "address"
        },
        {
          "internalType": "uint256",
          "name": "tokenId",
          "type": "uint256"
        }
      ],
      "name": "ERC721InsufficientApproval",
      "type": "error"
    },
    {
      "inputs": [
        {
          "internalType": "address",
          "name": "approver",
          "type": "address"
        }
      ],
      "name": "ERC721InvalidApprover",
      "type": "error"
    },
    {
      "inputs": [
        {
          "internalType": "address",
          "name": "operator",
          "type": "address"
        }
      ],
      "name": "ERC721InvalidOperator",
      "type": "error"
    },
    {
      "inputs": [
        {
          "internalType": "address",
          "name": "owner",
          "type": "address"
        }
      ],
      "name": "ERC721InvalidOwner",
      "type": "error"
    },
    {
      "inputs": [
        {
          "internalType": "address",
          "name": "receiver",
          "type": "address"
        }
      ],
      "name": "ERC721InvalidReceiver",
      "type": "error"
    },
    {
      "inputs": [
        {
          "internalType": "address",
          "name": "sender",
          "type": "address"
        }
      ],
      "name": "ERC721InvalidSender",
      "type": "error"
    },
    {
      "inputs": [
        {
          "internalType": "uint256",
          "name": "tokenId",
          "type": "uint256"
        }
      ],
      "name": "ERC721NonexistentToken",
      "type": "error"
    },
    {
      "anonymous": false,
      "inputs": [
        {
          "indexed": true,
          "internalType": "address",
          "name": "owner",
          "type": "address"
        },
        {
          "indexed": true,
          "internalType": "address",
          "name": "approved",
          "type": "address"
        },
        {
          "indexed": true,
          "internalType": "uint256",
          "name": "tokenId",
          "type": "uint256"
        }
      ],
      "name": "Approval",
      "type": "event"
    },
    {
      "anonymous": false,
      "inputs": [
        {
          "indexed": true,
          "internalType": "address",
          "name": "owner",
          "type": "address"
        },
        {
          "indexed": true,
          "internalType": "address",
          "name": "operator",
          "type": "address"
        },
        {
          "indexed": false,
          "internalType": "bool",
          "name": "approved",
          "type": "bool"
        }
      ],
      "name": "ApprovalForAll",
      "type": "event"
    },
    {
      "anonymous": false,
      "inputs": [
        {
          "indexed": true,
          "internalType": "address",
          "name": "from",
          "type": "address"
        },
        {
          "indexed": true,
          "internalType": "address",
          "name": "to",
          "type": "address"
        },
        {
          "indexed": true,
          "internalType": "uint256",
          "name": "tokenId",
          "type": "uint256"
        }
      ],
      "name": "Transfer",
      "type": "event"
    },
    {
      "inputs": [
        {
          "components": [
            {
              "internalType": "uint256",
              "name": "value",
              "type": "uint256"
            },
            {
              "internalType": "string",
              "name": "name",
              "type": "string"
            }
          ],
          "internalType": "struct DataTransportObject",
          "name": "dto",
          "type": "tuple"
        }
      ],
      "name": "abiSignatureHack",
      "outputs": [],
      "stateMutability": "pure",
      "type": "function"
    },
    {
      "inputs": [
        {
          "internalType": "address",
          "name": "to",
          "type": "address"
        },
        {
          "internalType": "uint256",
          "name": "tokenId",
          "type": "uint256"
        }
      ],
      "name": "approve",
      "outputs": [],
      "stateMutability": "nonpayable",
      "type": "function"
    },
    {
      "inputs": [
        {
          "internalType": "address",
          "name": "owner",
          "type": "address"
        }
      ],
      "name": "balanceOf",
      "outputs": [
        {
          "internalType": "uint256",
          "name": "",
          "type": "uint256"
        }
      ],
      "stateMutability": "view",
      "type": "function"
    },
    {
      "inputs": [
        {
          "internalType": "uint256",
          "name": "id",
          "type": "uint256"
        }
      ],
      "name": "buyContract",
      "outputs": [],
      "stateMutability": "nonpayable",
      "type": "function"
    },
    {
      "inputs": [
        {
          "internalType": "string",
          "name": "",
          "type": "string"
        }
      ],
      "name": "commodities",
      "outputs": [
        {
          "internalType": "uint256",
          "name": "",
          "type": "uint256"
        }
      ],
      "stateMutability": "view",
      "type": "function"
    },
    {
      "inputs": [
        {
          "internalType": "uint256",
          "name": "",
          "type": "uint256"
        }
      ],
      "name": "contractDetails",
      "outputs": [
        {
          "internalType": "address",
          "name": "buyer",
          "type": "address"
        },
        {
          "internalType": "uint256",
          "name": "currentPrice",
          "type": "uint256"
        },
        {
          "internalType": "uint256",
          "name": "trigger",
          "type": "uint256"
        },
        {
          "internalType": "uint256",
          "name": "expiry",
          "type": "uint256"
        },
        {
          "internalType": "enum OmegaFutures.Status",
          "name": "status",
          "type": "uint8"
        },
        {
          "internalType": "bool",
          "name": "isLong",
          "type": "bool"
        },
        {
          "internalType": "string",
          "name": "commodity",
          "type": "string"
        }
      ],
      "stateMutability": "view",
      "type": "function"
    },
    {
      "inputs": [
        {
          "components": [
            {
              "internalType": "uint256",
              "name": "value",
              "type": "uint256"
            },
            {
              "internalType": "string",
              "name": "name",
              "type": "string"
            },
            {
              "internalType": "bool",
              "name": "isLong",
              "type": "bool"
            },
            {
              "internalType": "uint256",
              "name": "expiry",
              "type": "uint256"
            }
          ],
          "internalType": "struct OmegaFutures.Commodity",
          "name": "commodity",
          "type": "tuple"
        }
      ],
      "name": "createContract",
      "outputs": [],
      "stateMutability": "nonpayable",
      "type": "function"
    },
    {
      "inputs": [
        {
          "internalType": "uint256",
          "name": "tokenId",
          "type": "uint256"
        }
      ],
      "name": "getApproved",
      "outputs": [
        {
          "internalType": "address",
          "name": "",
          "type": "address"
        }
      ],
      "stateMutability": "view",
      "type": "function"
    },
    {
      "inputs": [
        {
          "internalType": "address",
          "name": "owner",
          "type": "address"
        },
        {
          "internalType": "address",
          "name": "operator",
          "type": "address"
        }
      ],
      "name": "isApprovedForAll",
      "outputs": [
        {
          "internalType": "bool",
          "name": "",
          "type": "bool"
        }
      ],
      "stateMutability": "view",
      "type": "function"
    },
    {
      "inputs": [],
      "name": "name",
      "outputs": [
        {
          "internalType": "string",
          "name": "",
          "type": "string"
        }
      ],
      "stateMutability": "view",
      "type": "function"
    },
    {
      "inputs": [
        {
          "internalType": "uint256",
          "name": "tokenId",
          "type": "uint256"
        }
      ],
      "name": "ownerOf",
      "outputs": [
        {
          "internalType": "address",
          "name": "",
          "type": "address"
        }
      ],
      "stateMutability": "view",
      "type": "function"
    },
    {
      "inputs": [
        {
          "components": [
            {
              "internalType": "bytes32[]",
              "name": "merkleProof",
              "type": "bytes32[]"
            },
            {
              "components": [
                {
                  "internalType": "bytes32",
                  "name": "attestationType",
                  "type": "bytes32"
                },
                {
                  "internalType": "bytes32",
                  "name": "sourceId",
                  "type": "bytes32"
                },
                {
                  "internalType": "uint64",
                  "name": "votingRound",
                  "type": "uint64"
                },
                {
                  "internalType": "uint64",
                  "name": "lowestUsedTimestamp",
                  "type": "uint64"
                },
                {
                  "components": [
                    {
                      "internalType": "string",
                      "name": "url",
                      "type": "string"
                    },
                    {
                      "internalType": "string",
                      "name": "postprocessJq",
                      "type": "string"
                    },
                    {
                      "internalType": "string",
                      "name": "abi_signature",
                      "type": "string"
                    }
                  ],
                  "internalType": "struct IJsonApi.RequestBody",
                  "name": "requestBody",
                  "type": "tuple"
                },
                {
                  "components": [
                    {
                      "internalType": "bytes",
                      "name": "abi_encoded_data",
                      "type": "bytes"
                    }
                  ],
                  "internalType": "struct IJsonApi.ResponseBody",
                  "name": "responseBody",
                  "type": "tuple"
                }
              ],
              "internalType": "struct IJsonApi.Response",
              "name": "data",
              "type": "tuple"
            }
          ],
          "internalType": "struct IJsonApi.Proof",
          "name": "data",
          "type": "tuple"
        }
      ],
      "name": "postData",
      "outputs": [],
      "stateMutability": "nonpayable",
      "type": "function"
    },
    {
      "inputs": [],
      "name": "s_currentTokenID",
      "outputs": [
        {
          "internalType": "uint256",
          "name": "",
          "type": "uint256"
        }
      ],
      "stateMutability": "view",
      "type": "function"
    },
    {
      "inputs": [
        {
          "internalType": "address",
          "name": "from",
          "type": "address"
        },
        {
          "internalType": "address",
          "name": "to",
          "type": "address"
        },
        {
          "internalType": "uint256",
          "name": "tokenId",
          "type": "uint256"
        }
      ],
      "name": "safeTransferFrom",
      "outputs": [],
      "stateMutability": "nonpayable",
      "type": "function"
    },
    {
      "inputs": [
        {
          "internalType": "address",
          "name": "from",
          "type": "address"
        },
        {
          "internalType": "address",
          "name": "to",
          "type": "address"
        },
        {
          "internalType": "uint256",
          "name": "tokenId",
          "type": "uint256"
        },
        {
          "internalType": "bytes",
          "name": "data",
          "type": "bytes"
        }
      ],
      "name": "safeTransferFrom",
      "outputs": [],
      "stateMutability": "nonpayable",
      "type": "function"
    },
    {
      "inputs": [
        {
          "internalType": "address",
          "name": "operator",
          "type": "address"
        },
        {
          "internalType": "bool",
          "name": "approved",
          "type": "bool"
        }
      ],
      "name": "setApprovalForAll",
      "outputs": [],
      "stateMutability": "nonpayable",
      "type": "function"
    },
    {
      "inputs": [
        {
          "internalType": "bytes4",
          "name": "interfaceId",
          "type": "bytes4"
        }
      ],
      "name": "supportsInterface",
      "outputs": [
        {
          "internalType": "bool",
          "name": "",
          "type": "bool"
        }
      ],
      "stateMutability": "view",
      "type": "function"
    },
    {
      "inputs": [],
      "name": "symbol",
      "outputs": [
        {
          "internalType": "string",
          "name": "",
          "type": "string"
        }
      ],
      "stateMutability": "view",
      "type": "function"
    },
    {
      "inputs": [
        {
          "internalType": "uint256",
          "name": "tokenId",
          "type": "uint256"
        }
      ],
      "name": "tokenURI",
      "outputs": [
        {
          "internalType": "string",
          "name": "",
          "type": "string"
        }
      ],
      "stateMutability": "view",
      "type": "function"
    },
    {
      "inputs": [
        {
          "internalType": "address",
          "name": "from",
          "type": "address"
        },
        {
          "internalType": "address",
          "name": "to",
          "type": "address"
        },
        {
          "internalType": "uint256",
          "name": "tokenId",
          "type": "uint256"
        }
      ],
      "name": "transferFrom",
      "outputs": [],
      "stateMutability": "nonpayable",
      "type": "function"
    },
    {
      "inputs": [
        {
          "internalType": "uint256",
          "name": "id",
          "type": "uint256"
        }
      ],
      "name": "updateContract",
      "outputs": [],
      "stateMutability": "nonpayable",
      "type": "function"
    }
  ],
  "bytecode": "0x608060405234801561001057600080fd5b5060405161215838038061215883398101604081905261002f91610134565b8181600061003d8382610241565b50600161004a8282610241565b5050600680546001600160a01b0319166001600160a01b03959095169490941790935550610300915050565b634e487b7160e01b600052604160045260246000fd5b600082601f83011261009d57600080fd5b81516001600160401b03808211156100b7576100b7610076565b604051601f8301601f19908116603f011681019082821181831017156100df576100df610076565b81604052838152602092508660208588010111156100fc57600080fd5b600091505b8382101561011e5785820183015181830184015290820190610101565b6000602085830101528094505050505092915050565b60008060006060848603121561014957600080fd5b83516001600160a01b038116811461016057600080fd5b60208501519093506001600160401b038082111561017d57600080fd5b6101898783880161008c565b9350604086015191508082111561019f57600080fd5b506101ac8682870161008c565b9150509250925092565b600181811c908216806101ca57607f821691505b6020821081036101ea57634e487b7160e01b600052602260045260246000fd5b50919050565b601f82111561023c576000816000526020600020601f850160051c810160208610156102195750805b601f850160051c820191505b8181101561023857828155600101610225565b5050505b505050565b81516001600160401b0381111561025a5761025a610076565b61026e8161026884546101b6565b846101f0565b602080601f8311600181146102a3576000841561028b5750858301515b600019600386901b1c1916600185901b178555610238565b600085815260208120601f198616915b828110156102d2578886015182559484019460019091019084016102b3565b50858210156102f05787850151600019600388901b60f8161c191681555b5050505050600190811b01905550565b611e498061030f6000396000f3fe608060405234801561001057600080fd5b50600436106101375760003560e01c806370a08231116100b8578063bd8a96531161007c578063bd8a965314610296578063c29a2d47146102c1578063c87b56dd146102d2578063d4399445146102e5578063e985e9c5146102f8578063f1f3e5a91461030b57600080fd5b806370a082311461024257806395d89b4114610255578063a22cb4651461025d578063a622111614610270578063b88d4fde1461028357600080fd5b806323b872dd116100ff57806323b872dd146101d05780632ab825ea146101e35780633330a55f146101f657806342842e0e1461021c5780636352211e1461022f57600080fd5b806301ffc9a71461013c57806306fdde0314610164578063081812fc14610179578063095ea7b3146101a45780631b03630f146101b9575b600080fd5b61014f61014a3660046115f9565b61031e565b60405190151581526020015b60405180910390f35b61016c610370565b60405161015b9190611666565b61018c610187366004611679565b610402565b6040516001600160a01b03909116815260200161015b565b6101b76101b23660046116ae565b61042b565b005b6101c260075481565b60405190815260200161015b565b6101b76101de3660046116d8565b61043a565b6101b76101f1366004611714565b6104ca565b610209610204366004611679565b61076e565b60405161015b9796959493929190611765565b6101b761022a3660046116d8565b610846565b61018c61023d366004611679565b610866565b6101c26102503660046117d5565b610871565b61016c6108b9565b6101b761026b3660046117fe565b6108c8565b6101b761027e36600461184d565b6108d3565b6101b761029136600461190e565b610936565b6101c26102a43660046119aa565b805160208183018101805160088252928201919093012091525481565b6101b76102cf36600461184d565b50565b61016c6102e0366004611679565b61094e565b6101b76102f3366004611679565b6109c3565b61014f6103063660046119df565b610ba7565b6101b7610319366004611679565b610bd5565b60006001600160e01b031982166380ac58cd60e01b148061034f57506001600160e01b03198216635b5e139f60e01b145b8061036a57506301ffc9a760e01b6001600160e01b03198316145b92915050565b60606000805461037f90611a12565b80601f01602080910402602001604051908101604052809291908181526020018280546103ab90611a12565b80156103f85780601f106103cd576101008083540402835291602001916103f8565b820191906000526020600020905b8154815290600101906020018083116103db57829003601f168201915b5050505050905090565b600061040d82610f08565b506000828152600460205260409020546001600160a01b031661036a565b610436828233610f41565b5050565b6001600160a01b03821661046957604051633250574960e11b8152600060048201526024015b60405180910390fd5b6000610476838333610f4e565b9050836001600160a01b0316816001600160a01b0316146104c4576040516364283d7b60e01b81526001600160a01b0380861660048301526024820184905282166044820152606401610460565b50505050565b803560000361051b5760405162461bcd60e51b815260206004820152601b60248201527f747269676765722070726963652063616e2774206265207a65726f00000000006044820152606401610460565b6000600861052c6020840184611a46565b60405161053a929190611a94565b908152604051908190036020019020546006549091506001600160a01b03166323b872dd3330610570863564e8d4a51000611aba565b6040516001600160e01b031960e086901b1681526001600160a01b03938416600482015292909116602483015260448201526064016020604051808303816000875af11580156105c4573d6000803e3d6000fd5b505050506040513d601f19601f820116820180604052508101906105e89190611ad1565b506040518060e0016040528060006001600160a01b031681526020018281526020018360000135815260200183606001358152602001600060028111156106315761063161174f565b81526020016106466060850160408601611aee565b1515815260200183806020019061065d9190611a46565b8080601f0160208091040260200160405190810160405280939291908181526020018383808284376000920182905250939094525050600754815260096020908152604091829020845181546001600160a01b0319166001600160a01b0390911617815590840151600180830191909155918401516002808301919091556060850151600383015560808501516004830180549395509093909260ff191691849081111561070d5761070d61174f565b021790555060a08201516004820180549115156101000261ff001990921691909117905560c082015160058201906107459082611b53565b5090505061075533600754611047565b6007805490600061076583611c13565b91905055505050565b6009602052600090815260409020805460018201546002830154600384015460048501546005860180546001600160a01b039096169694959394929360ff80841694610100909404169291906107c390611a12565b80601f01602080910402602001604051908101604052809291908181526020018280546107ef90611a12565b801561083c5780601f106108115761010080835404028352916020019161083c565b820191906000526020600020905b81548152906001019060200180831161081f57829003601f168201915b5050505050905087565b61086183838360405180602001604052806000815250610936565b505050565b600061036a82610f08565b60006001600160a01b03821661089d576040516322718ad960e21b815260006004820152602401610460565b506001600160a01b031660009081526003602052604090205490565b60606001805461037f90611a12565b610436338383611061565b60006108e26020830183611c2c565b6108f09060a0810190611c4c565b6108fa9080611a46565b8101906109079190611c62565b90508060000151600882602001516040516109229190611cef565b908152604051908190036020019020555050565b61094184848461043a565b6104c43385858585611100565b606061095982610f08565b50600061097160408051602081019091526000815290565b9050600081511161099157604051806020016040528060008152506109bc565b8061099b8461122b565b6040516020016109ac929190611d01565b6040516020818303038152906040525b9392505050565b600081815260096020526040902060038101544210610a245760405162461bcd60e51b815260206004820152601a60248201527f63616e277420627579206578706972656420636f6e74726163740000000000006044820152606401610460565b6004810154610100900460ff1615610ae057600654600182015460028301546001600160a01b03909216916323b872dd9133913091610a6291611d30565b6040516001600160e01b031960e086901b1681526001600160a01b03938416600482015292909116602483015260448201526064016020604051808303816000875af1158015610ab6573d6000803e3d6000fd5b505050506040513d601f19601f82011682018060405250810190610ada9190611ad1565b50610b86565b600654600282015460018301546001600160a01b03909216916323b872dd9133913091610b0c91611d30565b6040516001600160e01b031960e086901b1681526001600160a01b03938416600482015292909116602483015260448201526064016020604051808303816000875af1158015610b60573d6000803e3d6000fd5b505050506040513d601f19601f82011682018060405250810190610b849190611ad1565b505b80546001600160a01b03191633178155600401805460ff1916600117905550565b6001600160a01b03918216600090815260056020908152604080832093909416825291909152205460ff1690565b6000818152600960205260408082209051909190600890610bfa906005850190611d43565b90815260405190819003602001902054600483015490915060ff6101009091041615610cde5780826002015411610cd95760048201805460ff191660021790556006546001600160a01b031663a9059cbb610c5485610866565b84600101548560020154610c689190611d30565b6040516001600160e01b031960e085901b1681526001600160a01b03909216600483015260248201526044016020604051808303816000875af1158015610cb3573d6000803e3d6000fd5b505050506040513d601f19601f82011682018060405250810190610cd79190611ad1565b505b610d97565b80826002015410610d975760048201805460ff191660021790556006546001600160a01b031663a9059cbb610d1285610866565b84600201548560010154610d269190611d30565b6040516001600160e01b031960e085901b1681526001600160a01b03909216600483015260248201526044016020604051808303816000875af1158015610d71573d6000803e3d6000fd5b505050506040513d601f19601f82011682018060405250810190610d959190611ad1565b505b42826003015411610861576006546001600160a01b031663a9059cbb610dbc85610866565b60018501546040516001600160e01b031960e085901b1681526001600160a01b03909216600483015260248201526044016020604051808303816000875af1158015610e0c573d6000803e3d6000fd5b505050506040513d601f19601f82011682018060405250810190610e309190611ad1565b50816002015482600101541015610edc576006548254600184015460028501546001600160a01b039384169363a9059cbb931691610e6d91611d30565b6040516001600160e01b031960e085901b1681526001600160a01b03909216600483015260248201526044016020604051808303816000875af1158015610eb8573d6000803e3d6000fd5b505050506040513d601f19601f820116820180604052508101906104c49190611ad1565b6006548254600284015460018501546001600160a01b039384169363a9059cbb931691610e6d91611d30565b6000818152600260205260408120546001600160a01b03168061036a57604051637e27328960e01b815260048101849052602401610460565b61086183838360016112be565b6000828152600260205260408120546001600160a01b0390811690831615610f7b57610f7b8184866113c4565b6001600160a01b03811615610fb957610f986000856000806112be565b6001600160a01b038116600090815260036020526040902080546000190190555b6001600160a01b03851615610fe8576001600160a01b0385166000908152600360205260409020805460010190555b60008481526002602052604080822080546001600160a01b0319166001600160a01b0389811691821790925591518793918516917fddf252ad1be2c89b69c2b068fc378daa952ba7f163c4a11628f55a4df523b3ef91a4949350505050565b610436828260405180602001604052806000815250611428565b6001600160a01b03821661109357604051630b61174360e31b81526001600160a01b0383166004820152602401610460565b6001600160a01b03838116600081815260056020908152604080832094871680845294825291829020805460ff191686151590811790915591519182527f17307eab39ab6107e8899845ad3d59bd9653f200f220920489ca2b5937696c31910160405180910390a3505050565b6001600160a01b0383163b1561122457604051630a85bd0160e11b81526001600160a01b0384169063150b7a0290611142908890889087908790600401611db9565b6020604051808303816000875af192505050801561117d575060408051601f3d908101601f1916820190925261117a91810190611df6565b60015b6111e6573d8080156111ab576040519150601f19603f3d011682016040523d82523d6000602084013e6111b0565b606091505b5080516000036111de57604051633250574960e11b81526001600160a01b0385166004820152602401610460565b805181602001fd5b6001600160e01b03198116630a85bd0160e11b1461122257604051633250574960e11b81526001600160a01b0385166004820152602401610460565b505b5050505050565b6060600061123883611440565b600101905060008167ffffffffffffffff81111561125857611258611882565b6040519080825280601f01601f191660200182016040528015611282576020820181803683370190505b5090508181016020015b600019016f181899199a1a9b1b9c1cb0b131b232b360811b600a86061a8153600a850494508461128c57509392505050565b80806112d257506001600160a01b03821615155b156113945760006112e284610f08565b90506001600160a01b0383161580159061130e5750826001600160a01b0316816001600160a01b031614155b8015611321575061131f8184610ba7565b155b1561134a5760405163a9fbf51f60e01b81526001600160a01b0384166004820152602401610460565b81156113925783856001600160a01b0316826001600160a01b03167f8c5be1e5ebec7d5bd14f71427d1e84f3dd0314c0f7b2291e5b200ac8c7c3b92560405160405180910390a45b505b5050600090815260046020526040902080546001600160a01b0319166001600160a01b0392909216919091179055565b6113cf838383611518565b610861576001600160a01b0383166113fd57604051637e27328960e01b815260048101829052602401610460565b60405163177e802f60e01b81526001600160a01b038316600482015260248101829052604401610460565b611432838361157e565b610861336000858585611100565b60008072184f03e93ff9f4daa797ed6e38ed64bf6a1f0160401b831061147f5772184f03e93ff9f4daa797ed6e38ed64bf6a1f0160401b830492506040015b6d04ee2d6d415b85acef810000000083106114ab576d04ee2d6d415b85acef8100000000830492506020015b662386f26fc1000083106114c957662386f26fc10000830492506010015b6305f5e10083106114e1576305f5e100830492506008015b61271083106114f557612710830492506004015b60648310611507576064830492506002015b600a831061036a5760010192915050565b60006001600160a01b038316158015906115765750826001600160a01b0316846001600160a01b0316148061155257506115528484610ba7565b8061157657506000828152600460205260409020546001600160a01b038481169116145b949350505050565b6001600160a01b0382166115a857604051633250574960e11b815260006004820152602401610460565b60006115b683836000610f4e565b90506001600160a01b03811615610861576040516339e3563760e11b815260006004820152602401610460565b6001600160e01b0319811681146102cf57600080fd5b60006020828403121561160b57600080fd5b81356109bc816115e3565b60005b83811015611631578181015183820152602001611619565b50506000910152565b60008151808452611652816020860160208601611616565b601f01601f19169290920160200192915050565b6020815260006109bc602083018461163a565b60006020828403121561168b57600080fd5b5035919050565b80356001600160a01b03811681146116a957600080fd5b919050565b600080604083850312156116c157600080fd5b6116ca83611692565b946020939093013593505050565b6000806000606084860312156116ed57600080fd5b6116f684611692565b925061170460208501611692565b9150604084013590509250925092565b60006020828403121561172657600080fd5b813567ffffffffffffffff81111561173d57600080fd5b8201608081850312156109bc57600080fd5b634e487b7160e01b600052602160045260246000fd5b6001600160a01b03881681526020810187905260408101869052606081018590526000600385106117a657634e487b7160e01b600052602160045260246000fd5b84608083015283151560a083015260e060c08301526117c860e083018461163a565b9998505050505050505050565b6000602082840312156117e757600080fd5b6109bc82611692565b80151581146102cf57600080fd5b6000806040838503121561181157600080fd5b61181a83611692565b9150602083013561182a816117f0565b809150509250929050565b60006040828403121561184757600080fd5b50919050565b60006020828403121561185f57600080fd5b813567ffffffffffffffff81111561187657600080fd5b61157684828501611835565b634e487b7160e01b600052604160045260246000fd5b600067ffffffffffffffff808411156118b3576118b3611882565b604051601f8501601f19908116603f011681019082821181831017156118db576118db611882565b816040528093508581528686860111156118f457600080fd5b858560208301376000602087830101525050509392505050565b6000806000806080858703121561192457600080fd5b61192d85611692565b935061193b60208601611692565b925060408501359150606085013567ffffffffffffffff81111561195e57600080fd5b8501601f8101871361196f57600080fd5b61197e87823560208401611898565b91505092959194509250565b600082601f83011261199b57600080fd5b6109bc83833560208501611898565b6000602082840312156119bc57600080fd5b813567ffffffffffffffff8111156119d357600080fd5b6115768482850161198a565b600080604083850312156119f257600080fd5b6119fb83611692565b9150611a0960208401611692565b90509250929050565b600181811c90821680611a2657607f821691505b60208210810361184757634e487b7160e01b600052602260045260246000fd5b6000808335601e19843603018112611a5d57600080fd5b83018035915067ffffffffffffffff821115611a7857600080fd5b602001915036819003821315611a8d57600080fd5b9250929050565b8183823760009101908152919050565b634e487b7160e01b600052601160045260246000fd5b808202811582820484141761036a5761036a611aa4565b600060208284031215611ae357600080fd5b81516109bc816117f0565b600060208284031215611b0057600080fd5b81356109bc816117f0565b601f821115610861576000816000526020600020601f850160051c81016020861015611b345750805b601f850160051c820191505b8181101561122257828155600101611b40565b815167ffffffffffffffff811115611b6d57611b6d611882565b611b8181611b7b8454611a12565b84611b0b565b602080601f831160018114611bb65760008415611b9e5750858301515b600019600386901b1c1916600185901b178555611222565b600085815260208120601f198616915b82811015611be557888601518255948401946001909101908401611bc6565b5085821015611c035787850151600019600388901b60f8161c191681555b5050505050600190811b01905550565b600060018201611c2557611c25611aa4565b5060010190565b6000823560be19833603018112611c4257600080fd5b9190910192915050565b60008235601e19833603018112611c4257600080fd5b600060208284031215611c7457600080fd5b813567ffffffffffffffff80821115611c8c57600080fd5b9083019060408286031215611ca057600080fd5b604051604081018181108382111715611cbb57611cbb611882565b60405282358152602083013582811115611cd457600080fd5b611ce08782860161198a565b60208301525095945050505050565b60008251611c42818460208701611616565b60008351611d13818460208801611616565b835190830190611d27818360208801611616565b01949350505050565b8181038181111561036a5761036a611aa4565b6000808354611d5181611a12565b60018281168015611d695760018114611d7e57611dad565b60ff1984168752821515830287019450611dad565b8760005260208060002060005b85811015611da45781548a820152908401908201611d8b565b50505082870194505b50929695505050505050565b6001600160a01b0385811682528416602082015260408101839052608060608201819052600090611dec9083018461163a565b9695505050505050565b600060208284031215611e0857600080fd5b81516109bc816115e356fea2646970667358221220b60ca9c1aae9d8675e6ddecf36566e6114ea35e8a0e30a7f61e6bd4549f9aa6d64736f6c63430008190033",
  "linkReferences": {},
  "deployedLinkReferences": {}
}